{
  "_format": "hh-sol-artifact-1",
  "contractName": "CredentialRegistry",
  "sourceName": "contracts/CredentialRegistry.sol",
  "abi": [
    {
      "inputs": [],
      "stateMutability": "nonpayable",
      "type": "constructor"
    },
    {
      "anonymous": false,
      "inputs": [
        {
          "indexed": true,
          "internalType": "string",
          "name": "credentialHash",
          "type": "string"
        },
        {
          "indexed": false,
          "internalType": "string",
          "name": "reason",
          "type": "string"
        },
        {
          "indexed": false,
          "internalType": "uint256",
          "name": "timestamp",
          "type": "uint256"
        },
        {
          "indexed": false,
          "internalType": "uint256",
          "name": "blockNumber",
          "type": "uint256"
        }
      ],
      "name": "CredentialRevoked",
      "type": "event"
    },
    {
      "anonymous": false,
      "inputs": [
        {
          "indexed": true,
          "internalType": "string",
          "name": "credentialHash",
          "type": "string"
        },
        {
          "indexed": true,
          "internalType": "string",
          "name": "vcId",
          "type": "string"
        },
        {
          "indexed": true,
          "internalType": "string",
          "name": "issuerDid",
          "type": "string"
        },
        {
          "indexed": false,
          "internalType": "uint256",
          "name": "timestamp",
          "type": "uint256"
        },
        {
          "indexed": false,
          "internalType": "uint256",
          "name": "blockNumber",
          "type": "uint256"
        }
      ],
      "name": "CredentialStored",
      "type": "event"
    },
    {
      "anonymous": false,
      "inputs": [
        {
          "indexed": true,
          "internalType": "string",
          "name": "issuerDid",
          "type": "string"
        },
        {
          "indexed": true,
          "internalType": "address",
          "name": "issuerAddress",
          "type": "address"
        },
        {
          "indexed": false,
          "internalType": "string",
          "name": "name",
          "type": "string"
        },
        {
          "indexed": false,
          "internalType": "string",
          "name": "organizationType",
          "type": "string"
        },
        {
          "indexed": false,
          "internalType": "uint256",
          "name": "timestamp",
          "type": "uint256"
        }
      ],
      "name": "IssuerRegistered",
      "type": "event"
    },
    {
      "inputs": [
        {
          "internalType": "address",
          "name": "",
          "type": "address"
        }
      ],
      "name": "addressToDid",
      "outputs": [
        {
          "internalType": "string",
          "name": "",
          "type": "string"
        }
      ],
      "stateMutability": "view",
      "type": "function"
    },
    {
      "inputs": [
        {
          "internalType": "string",
          "name": "",
          "type": "string"
        }
      ],
      "name": "credentialExists",
      "outputs": [
        {
          "internalType": "bool",
          "name": "",
          "type": "bool"
        }
      ],
      "stateMutability": "view",
      "type": "function"
    },
    {
      "inputs": [
        {
          "internalType": "string",
          "name": "",
          "type": "string"
        }
      ],
      "name": "credentials",
      "outputs": [
        {
          "internalType": "string",
          "name": "credentialHash",
          "type": "string"
        },
        {
          "internalType": "string",
          "name": "vcId",
          "type": "string"
        },
        {
          "internalType": "string",
          "name": "issuerDid",
          "type": "string"
        },
        {
          "internalType": "uint256",
          "name": "timestamp",
          "type": "uint256"
        },
        {
          "internalType": "uint256",
          "name": "blockNumber",
          "type": "uint256"
        },
        {
          "internalType": "bool",
          "name": "isRevoked",
          "type": "bool"
        },
        {
          "internalType": "string",
          "name": "revocationReason",
          "type": "string"
        },
        {
          "internalType": "uint256",
          "name": "revokedAt",
          "type": "uint256"
        }
      ],
      "stateMutability": "view",
      "type": "function"
    },
    {
      "inputs": [
        {
          "internalType": "string",
          "name": "_issuerDid",
          "type": "string"
        }
      ],
      "name": "deactivateIssuer",
      "outputs": [],
      "stateMutability": "nonpayable",
      "type": "function"
    },
    {
      "inputs": [
        {
          "internalType": "string",
          "name": "_credentialHash",
          "type": "string"
        }
      ],
      "name": "getCredential",
      "outputs": [
        {
          "components": [
            {
              "internalType": "string",
              "name": "credentialHash",
              "type": "string"
            },
            {
              "internalType": "string",
              "name": "vcId",
              "type": "string"
            },
            {
              "internalType": "string",
              "name": "issuerDid",
              "type": "string"
            },
            {
              "internalType": "uint256",
              "name": "timestamp",
              "type": "uint256"
            },
            {
              "internalType": "uint256",
              "name": "blockNumber",
              "type": "uint256"
            },
            {
              "internalType": "bool",
              "name": "isRevoked",
              "type": "bool"
            },
            {
              "internalType": "string",
              "name": "revocationReason",
              "type": "string"
            },
            {
              "internalType": "uint256",
              "name": "revokedAt",
              "type": "uint256"
            }
          ],
          "internalType": "struct CredentialRegistry.Credential",
          "name": "",
          "type": "tuple"
        }
      ],
      "stateMutability": "view",
      "type": "function"
    },
    {
      "inputs": [
        {
          "internalType": "string",
          "name": "_issuerDid",
          "type": "string"
        }
      ],
      "name": "getIssuer",
      "outputs": [
        {
          "components": [
            {
              "internalType": "string",
              "name": "did",
              "type": "string"
            },
            {
              "internalType": "address",
              "name": "issuerAddress",
              "type": "address"
            },
            {
              "internalType": "string",
              "name": "name",
              "type": "string"
            },
            {
              "internalType": "string",
              "name": "organizationType",
              "type": "string"
            },
            {
              "internalType": "bool",
              "name": "isActive",
              "type": "bool"
            },
            {
              "internalType": "uint256",
              "name": "registeredAt",
              "type": "uint256"
            },
            {
              "internalType": "uint256",
              "name": "credentialsIssued",
              "type": "uint256"
            }
          ],
          "internalType": "struct CredentialRegistry.Issuer",
          "name": "",
          "type": "tuple"
        }
      ],
      "stateMutability": "view",
      "type": "function"
    },
    {
      "inputs": [
        {
          "internalType": "string",
          "name": "_issuerDid",
          "type": "string"
        }
      ],
      "name": "getIssuerCredentialsCount",
      "outputs": [
        {
          "internalType": "uint256",
          "name": "",
          "type": "uint256"
        }
      ],
      "stateMutability": "view",
      "type": "function"
    },
    {
      "inputs": [
        {
          "internalType": "address",
          "name": "_address",
          "type": "address"
        }
      ],
      "name": "getIssuerDid",
      "outputs": [
        {
          "internalType": "string",
          "name": "",
          "type": "string"
        }
      ],
      "stateMutability": "view",
      "type": "function"
    },
    {
      "inputs": [],
      "name": "getStats",
      "outputs": [
        {
          "internalType": "uint256",
          "name": "_totalCredentials",
          "type": "uint256"
        },
        {
          "internalType": "uint256",
          "name": "_totalIssuers",
          "type": "uint256"
        },
        {
          "internalType": "address",
          "name": "_owner",
          "type": "address"
        }
      ],
      "stateMutability": "view",
      "type": "function"
    },
    {
      "inputs": [
        {
          "internalType": "address",
          "name": "_address",
          "type": "address"
        }
      ],
      "name": "isRegisteredIssuer",
      "outputs": [
        {
          "internalType": "bool",
          "name": "",
          "type": "bool"
        }
      ],
      "stateMutability": "view",
      "type": "function"
    },
    {
      "inputs": [
        {
          "internalType": "string",
          "name": "_credentialHash",
          "type": "string"
        }
      ],
      "name": "isValidCredential",
      "outputs": [
        {
          "internalType": "bool",
          "name": "",
          "type": "bool"
        }
      ],
      "stateMutability": "view",
      "type": "function"
    },
    {
      "inputs": [
        {
          "internalType": "string",
          "name": "",
          "type": "string"
        }
      ],
      "name": "issuers",
      "outputs": [
        {
          "internalType": "string",
          "name": "did",
          "type": "string"
        },
        {
          "internalType": "address",
          "name": "issuerAddress",
          "type": "address"
        },
        {
          "internalType": "string",
          "name": "name",
          "type": "string"
        },
        {
          "internalType": "string",
          "name": "organizationType",
          "type": "string"
        },
        {
          "internalType": "bool",
          "name": "isActive",
          "type": "bool"
        },
        {
          "internalType": "uint256",
          "name": "registeredAt",
          "type": "uint256"
        },
        {
          "internalType": "uint256",
          "name": "credentialsIssued",
          "type": "uint256"
        }
      ],
      "stateMutability": "view",
      "type": "function"
    },
    {
      "inputs": [],
      "name": "owner",
      "outputs": [
        {
          "internalType": "address",
          "name": "",
          "type": "address"
        }
      ],
      "stateMutability": "view",
      "type": "function"
    },
    {
      "inputs": [
        {
          "internalType": "string",
          "name": "_issuerDid",
          "type": "string"
        }
      ],
      "name": "reactivateIssuer",
      "outputs": [],
      "stateMutability": "nonpayable",
      "type": "function"
    },
    {
      "inputs": [
        {
          "internalType": "string",
          "name": "_did",
          "type": "string"
        },
        {
          "internalType": "string",
          "name": "_name",
          "type": "string"
        },
        {
          "internalType": "string",
          "name": "_organizationType",
          "type": "string"
        }
      ],
      "name": "registerIssuer",
      "outputs": [],
      "stateMutability": "nonpayable",
      "type": "function"
    },
    {
      "inputs": [
        {
          "internalType": "string",
          "name": "_credentialHash",
          "type": "string"
        },
        {
          "internalType": "string",
          "name": "_reason",
          "type": "string"
        }
      ],
      "name": "revokeCredential",
      "outputs": [],
      "stateMutability": "nonpayable",
      "type": "function"
    },
    {
      "inputs": [
        {
          "internalType": "string",
          "name": "_credentialHash",
          "type": "string"
        },
        {
          "internalType": "string",
          "name": "_vcId",
          "type": "string"
        },
        {
          "internalType": "string",
          "name": "_issuerDid",
          "type": "string"
        }
      ],
      "name": "storeCredential",
      "outputs": [],
      "stateMutability": "nonpayable",
      "type": "function"
    },
    {
      "inputs": [],
      "name": "totalCredentials",
      "outputs": [
        {
          "internalType": "uint256",
          "name": "",
          "type": "uint256"
        }
      ],
      "stateMutability": "view",
      "type": "function"
    },
    {
      "inputs": [],
      "name": "totalIssuers",
      "outputs": [
        {
          "internalType": "uint256",
          "name": "",
          "type": "uint256"
        }
      ],
      "stateMutability": "view",
      "type": "function"
    },
    {
      "inputs": [
        {
          "internalType": "address",
          "name": "_newOwner",
          "type": "address"
        }
      ],
      "name": "transferOwnership",
      "outputs": [],
      "stateMutability": "nonpayable",
      "type": "function"
    },
    {
      "inputs": [
        {
          "internalType": "string",
          "name": "_credentialHash",
          "type": "string"
        }
      ],
      "name": "verifyCredential",
      "outputs": [
        {
          "internalType": "bool",
          "name": "exists",
          "type": "bool"
        },
        {
          "internalType": "string",
          "name": "issuerDid",
          "type": "string"
        },
        {
          "internalType": "uint256",
          "name": "timestamp",
          "type": "uint256"
        },
        {
          "internalType": "uint256",
          "name": "blockNumber",
          "type": "uint256"
        },
        {
          "internalType": "bool",
          "name": "isRevoked",
          "type": "bool"
        }
      ],
      "stateMutability": "view",
      "type": "function"
    }
  ],
  "bytecode": "0x608060405234801561001057600080fd5b50600480546001600160a01b03191633179055600060058190556006556127878061003c6000396000f3fe608060405234801561001057600080fd5b50600436106101375760003560e01c80638096373e116100b8578063bf4af9b11161007c578063bf4af9b1146102db578063c59d484714610302578063cae27f8f1461032f578063d091187f14610342578063e97b33ca14610362578063f2fde38b1461037557600080fd5b80638096373e146102465780638da5cb5b1461025957806390ddc0241461028457806391d481c8146102a4578063bb3670ab146102b757600080fd5b806322aa9e97116100ff57806322aa9e97146101af5780632d33d7d5146101c25780634e7692bb146101e5578063716fa51a1461021357806380793ab81461022657600080fd5b80630927cd0d1461013c5780631513d62b146101585780631816de99146101615780631a20cebc146101875780631b27e9051461019a575b600080fd5b61014560065481565b6040519081526020015b60405180910390f35b61014560055481565b61017461016f36600461201c565b610388565b60405161014f97969594939291906120a9565b61014561019536600461201c565b61057a565b6101ad6101a836600461201c565b6105a5565b005b6101ad6101bd366004612111565b6106f5565b6101d56101d0366004612199565b610b17565b604051901515815260200161014f565b6101d56101f336600461201c565b805160208183018101805160038252928201919093012091525460ff1681565b6101ad61022136600461201c565b610bf7565b61023961023436600461201c565b610c75565b60405161014f91906121c2565b6101ad610254366004612111565b610ee0565b60045461026c906001600160a01b031681565b6040516001600160a01b03909116815260200161014f565b610297610292366004612199565b6111b7565b60405161014f919061225a565b6101ad6102b236600461226d565b611263565b6102ca6102c536600461201c565b6114ec565b60405161014f9594939291906122d1565b6102ee6102e936600461201c565b61180d565b60405161014f98979695949392919061230b565b6005546006546004546040805193845260208401929092526001600160a01b03169082015260600161014f565b61029761033d366004612199565b611a81565b61035561035036600461201c565b611b1b565b60405161014f9190612385565b6101d561037036600461201c565b611e7d565b6101ad610383366004612199565b611ed7565b80516020818301810180516001825292820191909301209152805481906103ae9061243d565b80601f01602080910402602001604051908101604052809291908181526020018280546103da9061243d565b80156104275780601f106103fc57610100808354040283529160200191610427565b820191906000526020600020905b81548152906001019060200180831161040a57829003601f168201915b505050600184015460028501805494956001600160a01b039092169491935091506104519061243d565b80601f016020809104026020016040519081016040528092919081815260200182805461047d9061243d565b80156104ca5780601f1061049f576101008083540402835291602001916104ca565b820191906000526020600020905b8154815290600101906020018083116104ad57829003601f168201915b5050505050908060030180546104df9061243d565b80601f016020809104026020016040519081016040528092919081815260200182805461050b9061243d565b80156105585780601f1061052d57610100808354040283529160200191610558565b820191906000526020600020905b81548152906001019060200180831161053b57829003601f168201915b5050505060048301546005840154600690940154929360ff9091169290915087565b600060018260405161058c9190612471565b9081526020016040518091039020600601549050919050565b6004546001600160a01b031633146105d85760405162461bcd60e51b81526004016105cf9061248d565b60405180910390fd5b6001816040516105e89190612471565b9081526040519081900360200190206004015460ff161561064b5760405162461bcd60e51b815260206004820152601860248201527f49737375657220697320616c726561647920616374697665000000000000000060448201526064016105cf565b600060018260405161065d9190612471565b90815260405190819003602001902080546106779061243d565b9050116106be5760405162461bcd60e51b8152602060048201526015602482015274125cdcdd595c88191bd95cc81b9bdd08195e1a5cdd605a1b60448201526064016105cf565b600180826040516106cf9190612471565b908152604051908190036020019020600401805491151560ff1990921691909117905550565b336000908152600260205260408120805461070f9061243d565b90501161072e5760405162461bcd60e51b81526004016105cf906124ce565b3360009081526002602052604090819020905160019161074d9161251c565b9081526040519081900360200190206004015460ff1661077f5760405162461bcd60e51b81526004016105cf90612592565b826003816040516107909190612471565b9081526040519081900360200190205460ff16156107f05760405162461bcd60e51b815260206004820152601960248201527f43726564656e7469616c20616c7265616479206578697374730000000000000060448201526064016105cf565b60008451116108415760405162461bcd60e51b815260206004820152601f60248201527f43726564656e7469616c20686173682063616e6e6f7420626520656d7074790060448201526064016105cf565b600083511161088a5760405162461bcd60e51b815260206004820152601560248201527456432049442063616e6e6f7420626520656d70747960581b60448201526064016105cf565b3360009081526002602090815260409182902091516108aa92910161251c565b60405160208183030381529060405280519060200120826040516020016108d19190612471565b604051602081830303815290604052805190602001201461092a5760405162461bcd60e51b8152602060048201526013602482015272092e6e6eacae44088928840dad2e6dac2e8c6d606b1b60448201526064016105cf565b60405180610100016040528085815260200184815260200183815260200142815260200143815260200160001515815260200160405180602001604052806000815250815260200160008152506000856040516109879190612471565b908152604051908190036020019020815181906109a4908261260f565b50602082015160018201906109b9908261260f565b50604082015160028201906109ce908261260f565b50606082015160038201556080820151600482015560a082015160058201805460ff191691151591909117905560c08201516006820190610a0f908261260f565b5060e082015181600701559050506001600385604051610a2f9190612471565b908152604051908190036020018120805492151560ff1990931692909217909155600190610a5e908490612471565b9081526040519081900360200190206006018054906000610a7e836126cf565b909155505060058054906000610a93836126cf565b919050555081604051610aa69190612471565b604051809103902083604051610abc9190612471565b604051809103902085604051610ad29190612471565b60408051918290038220428352436020840152917fde9f132a34ae1171d442728e390d69dd4bcea5d83653060261d0bfd86b2c240a910160405180910390a450505050565b6001600160a01b03811660009081526002602052604081208054829190610b3d9061243d565b80601f0160208091040260200160405190810160405280929190818152602001828054610b699061243d565b8015610bb65780601f10610b8b57610100808354040283529160200191610bb6565b820191906000526020600020905b815481529060010190602001808311610b9957829003601f168201915b5050505050905060008151118015610bf05750600181604051610bd99190612471565b9081526040519081900360200190206004015460ff165b9392505050565b6004546001600160a01b03163314610c215760405162461bcd60e51b81526004016105cf9061248d565b600181604051610c319190612471565b9081526040519081900360200190206004015460ff16610c635760405162461bcd60e51b81526004016105cf90612592565b60006001826040516106cf9190612471565b610cc06040518060e001604052806060815260200160006001600160a01b03168152602001606081526020016060815260200160001515815260200160008152602001600081525090565b600182604051610cd09190612471565b90815260200160405180910390206040518060e0016040529081600082018054610cf99061243d565b80601f0160208091040260200160405190810160405280929190818152602001828054610d259061243d565b8015610d725780601f10610d4757610100808354040283529160200191610d72565b820191906000526020600020905b815481529060010190602001808311610d5557829003601f168201915b505050918352505060018201546001600160a01b03166020820152600282018054604090920191610da29061243d565b80601f0160208091040260200160405190810160405280929190818152602001828054610dce9061243d565b8015610e1b5780601f10610df057610100808354040283529160200191610e1b565b820191906000526020600020905b815481529060010190602001808311610dfe57829003601f168201915b50505050508152602001600382018054610e349061243d565b80601f0160208091040260200160405190810160405280929190818152602001828054610e609061243d565b8015610ead5780601f10610e8257610100808354040283529160200191610ead565b820191906000526020600020905b815481529060010190602001808311610e9057829003601f168201915b5050509183525050600482015460ff16151560208201526005820154604082015260069091015460609091015292915050565b6000835111610f275760405162461bcd60e51b81526020600482015260136024820152724449442063616e6e6f7420626520656d70747960681b60448201526064016105cf565b6000825111610f6f5760405162461bcd60e51b81526020600482015260146024820152734e616d652063616e6e6f7420626520656d70747960601b60448201526064016105cf565b3360009081526002602052604090208054610f899061243d565b159050610fd85760405162461bcd60e51b815260206004820152601a60248201527f4164647265737320616c7265616479207265676973746572656400000000000060448201526064016105cf565b600183604051610fe89190612471565b9081526040519081900360200190206004015460ff16156110445760405162461bcd60e51b815260206004820152601660248201527511125108185b1c9958591e481c9959da5cdd195c995960521b60448201526064016105cf565b6040518060e00160405280848152602001336001600160a01b0316815260200183815260200182815260200160011515815260200142815260200160008152506001846040516110949190612471565b908152604051908190036020019020815181906110b1908261260f565b5060208201516001820180546001600160a01b0319166001600160a01b03909216919091179055604082015160028201906110ec908261260f565b5060608201516003820190611101908261260f565b50608082015160048201805460ff191691151591909117905560a0820151600582015560c090910151600690910155336000908152600260205260409020611149848261260f565b506006805490600061115a836126cf565b9091555050604051339061116f908590612471565b60405180910390207f8a484200b1d27cec8b18a266e6f904809538cd99e7628095e73a0eadc17b79fd8484426040516111aa939291906126f6565b60405180910390a3505050565b6001600160a01b03811660009081526002602052604090208054606091906111de9061243d565b80601f016020809104026020016040519081016040528092919081815260200182805461120a9061243d565b80156112575780601f1061122c57610100808354040283529160200191611257565b820191906000526020600020905b81548152906001019060200180831161123a57829003601f168201915b50505050509050919050565b336000908152600260205260408120805461127d9061243d565b90501161129c5760405162461bcd60e51b81526004016105cf906124ce565b336000908152600260205260409081902090516001916112bb9161251c565b9081526040519081900360200190206004015460ff166112ed5760405162461bcd60e51b81526004016105cf90612592565b816003816040516112fe9190612471565b9081526040519081900360200190205460ff166113595760405162461bcd60e51b815260206004820152601960248201527810dc9959195b9d1a585b08191bd95cc81b9bdd08195e1a5cdd603a1b60448201526064016105cf565b6000808460405161136a9190612471565b90815260408051602092819003830181203360009081526002855292909220919350611396920161251c565b60405160208183030381529060405280519060200120816002016040516020016113c0919061251c565b604051602081830303815290604052805190602001201461141c5760405162461bcd60e51b81526020600482015260166024820152754f6e6c79206973737565722063616e207265766f6b6560501b60448201526064016105cf565b600581015460ff16156114715760405162461bcd60e51b815260206004820152601a60248201527f43726564656e7469616c20616c7265616479207265766f6b656400000000000060448201526064016105cf565b60058101805460ff191660011790556006810161148e848261260f565b504260078201556040516114a3908590612471565b60405180910390207f67f1701f1e26f0aaad20e2b1cb4520ab640b948f59595f073ada57d0d783e3548442436040516114de9392919061272c565b60405180910390a250505050565b6000606060008060006003866040516115059190612471565b9081526040519081900360200190205460ff1661153c57505060408051602081019091526000808252935091508290508080611804565b6000808760405161154d9190612471565b9081526020016040518091039020604051806101000160405290816000820180546115779061243d565b80601f01602080910402602001604051908101604052809291908181526020018280546115a39061243d565b80156115f05780601f106115c5576101008083540402835291602001916115f0565b820191906000526020600020905b8154815290600101906020018083116115d357829003601f168201915b505050505081526020016001820180546116099061243d565b80601f01602080910402602001604051908101604052809291908181526020018280546116359061243d565b80156116825780601f1061165757610100808354040283529160200191611682565b820191906000526020600020905b81548152906001019060200180831161166557829003601f168201915b5050505050815260200160028201805461169b9061243d565b80601f01602080910402602001604051908101604052809291908181526020018280546116c79061243d565b80156117145780601f106116e957610100808354040283529160200191611714565b820191906000526020600020905b8154815290600101906020018083116116f757829003601f168201915b50505091835250506003820154602082015260048201546040820152600582015460ff16151560608201526006820180546080909201916117549061243d565b80601f01602080910402602001604051908101604052809291908181526020018280546117809061243d565b80156117cd5780601f106117a2576101008083540402835291602001916117cd565b820191906000526020600020905b8154815290600101906020018083116117b057829003601f168201915b50505050508152602001600782015481525050905060018160400151826060015183608001518460a0015195509550955095509550505b91939590929450565b80516020818301810180516000825292820191909301209152805481906118339061243d565b80601f016020809104026020016040519081016040528092919081815260200182805461185f9061243d565b80156118ac5780601f10611881576101008083540402835291602001916118ac565b820191906000526020600020905b81548152906001019060200180831161188f57829003601f168201915b5050505050908060010180546118c19061243d565b80601f01602080910402602001604051908101604052809291908181526020018280546118ed9061243d565b801561193a5780601f1061190f5761010080835404028352916020019161193a565b820191906000526020600020905b81548152906001019060200180831161191d57829003601f168201915b50505050509080600201805461194f9061243d565b80601f016020809104026020016040519081016040528092919081815260200182805461197b9061243d565b80156119c85780601f1061199d576101008083540402835291602001916119c8565b820191906000526020600020905b8154815290600101906020018083116119ab57829003601f168201915b5050506003840154600485015460058601546006870180549697939692955060ff9091169350906119f89061243d565b80601f0160208091040260200160405190810160405280929190818152602001828054611a249061243d565b8015611a715780601f10611a4657610100808354040283529160200191611a71565b820191906000526020600020905b815481529060010190602001808311611a5457829003601f168201915b5050505050908060070154905088565b60026020526000908152604090208054611a9a9061243d565b80601f0160208091040260200160405190810160405280929190818152602001828054611ac69061243d565b8015611b135780601f10611ae857610100808354040283529160200191611b13565b820191906000526020600020905b815481529060010190602001808311611af657829003601f168201915b505050505081565b611b65604051806101000160405280606081526020016060815260200160608152602001600081526020016000815260200160001515815260200160608152602001600081525090565b81600381604051611b769190612471565b9081526040519081900360200190205460ff16611bd15760405162461bcd60e51b815260206004820152601960248201527810dc9959195b9d1a585b08191bd95cc81b9bdd08195e1a5cdd603a1b60448201526064016105cf565b600083604051611be19190612471565b908152602001604051809103902060405180610100016040529081600082018054611c0b9061243d565b80601f0160208091040260200160405190810160405280929190818152602001828054611c379061243d565b8015611c845780601f10611c5957610100808354040283529160200191611c84565b820191906000526020600020905b815481529060010190602001808311611c6757829003601f168201915b50505050508152602001600182018054611c9d9061243d565b80601f0160208091040260200160405190810160405280929190818152602001828054611cc99061243d565b8015611d165780601f10611ceb57610100808354040283529160200191611d16565b820191906000526020600020905b815481529060010190602001808311611cf957829003601f168201915b50505050508152602001600282018054611d2f9061243d565b80601f0160208091040260200160405190810160405280929190818152602001828054611d5b9061243d565b8015611da85780601f10611d7d57610100808354040283529160200191611da8565b820191906000526020600020905b815481529060010190602001808311611d8b57829003601f168201915b50505091835250506003820154602082015260048201546040820152600582015460ff1615156060820152600682018054608090920191611de89061243d565b80601f0160208091040260200160405190810160405280929190818152602001828054611e149061243d565b8015611e615780601f10611e3657610100808354040283529160200191611e61565b820191906000526020600020905b815481529060010190602001808311611e4457829003601f168201915b5050505050815260200160078201548152505091505b50919050565b6000600382604051611e8f9190612471565b9081526040519081900360200190205460ff168015611ed15750600082604051611eb99190612471565b9081526040519081900360200190206005015460ff16155b92915050565b6004546001600160a01b03163314611f015760405162461bcd60e51b81526004016105cf9061248d565b6001600160a01b038116611f575760405162461bcd60e51b815260206004820181905260248201527f4e6577206f776e65722063616e6e6f74206265207a65726f206164647265737360448201526064016105cf565b600480546001600160a01b0319166001600160a01b0392909216919091179055565b634e487b7160e01b600052604160045260246000fd5b600082601f830112611fa057600080fd5b813567ffffffffffffffff80821115611fbb57611fbb611f79565b604051601f8301601f19908116603f01168101908282118183101715611fe357611fe3611f79565b81604052838152866020858801011115611ffc57600080fd5b836020870160208301376000602085830101528094505050505092915050565b60006020828403121561202e57600080fd5b813567ffffffffffffffff81111561204557600080fd5b61205184828501611f8f565b949350505050565b60005b8381101561207457818101518382015260200161205c565b50506000910152565b60008151808452612095816020860160208601612059565b601f01601f19169290920160200192915050565b60e0815260006120bc60e083018a61207d565b6001600160a01b038916602084015282810360408401526120dd818961207d565b905082810360608401526120f1818861207d565b9515156080840152505060a081019290925260c090910152949350505050565b60008060006060848603121561212657600080fd5b833567ffffffffffffffff8082111561213e57600080fd5b61214a87838801611f8f565b9450602086013591508082111561216057600080fd5b61216c87838801611f8f565b9350604086013591508082111561218257600080fd5b5061218f86828701611f8f565b9150509250925092565b6000602082840312156121ab57600080fd5b81356001600160a01b0381168114610bf057600080fd5b602081526000825160e060208401526121df61010084018261207d565b905060018060a01b0360208501511660408401526040840151601f198085840301606086015261220f838361207d565b925060608601519150808584030160808601525061222d828261207d565b9150506080840151151560a084015260a084015160c084015260c084015160e08401528091505092915050565b602081526000610bf0602083018461207d565b6000806040838503121561228057600080fd5b823567ffffffffffffffff8082111561229857600080fd5b6122a486838701611f8f565b935060208501359150808211156122ba57600080fd5b506122c785828601611f8f565b9150509250929050565b851515815260a0602082015260006122ec60a083018761207d565b6040830195909552506060810192909252151560809091015292915050565b600061010080835261231f8184018c61207d565b90508281036020840152612333818b61207d565b90508281036040840152612347818a61207d565b905087606084015286608084015285151560a084015282810360c084015261236f818661207d565b9150508260e08301529998505050505050505050565b60208152600082516101008060208501526123a461012085018361207d565b91506020850151601f19808685030160408701526123c2848361207d565b935060408701519150808685030160608701526123df848361207d565b935060608701516080870152608087015160a087015260a0870151915061240a60c087018315159052565b60c08701519150808685030160e087015250612426838261207d565b92505060e085015181850152508091505092915050565b600181811c9082168061245157607f821691505b602082108103611e7757634e487b7160e01b600052602260045260246000fd5b60008251612483818460208701612059565b9190910192915050565b60208082526021908201527f4f6e6c79206f776e65722063616e2063616c6c20746869732066756e6374696f6040820152603760f91b606082015260800190565b6020808252602e908201527f4f6e6c79207265676973746572656420697373756572732063616e2063616c6c60408201526d103a3434b990333ab731ba34b7b760911b606082015260800190565b600080835461252a8161243d565b60018281168015612542576001811461255757612586565b60ff1984168752821515830287019450612586565b8760005260208060002060005b8581101561257d5781548a820152908401908201612564565b50505082870194505b50929695505050505050565b602080825260149082015273497373756572206973206e6f742061637469766560601b604082015260600190565b601f82111561260a57600081815260208120601f850160051c810160208610156125e75750805b601f850160051c820191505b81811015612606578281556001016125f3565b5050505b505050565b815167ffffffffffffffff81111561262957612629611f79565b61263d81612637845461243d565b846125c0565b602080601f831160018114612672576000841561265a5750858301515b600019600386901b1c1916600185901b178555612606565b600085815260208120601f198616915b828110156126a157888601518255948401946001909101908401612682565b50858210156126bf5787850151600019600388901b60f8161c191681555b5050505050600190811b01905550565b6000600182016126ef57634e487b7160e01b600052601160045260246000fd5b5060010190565b606081526000612709606083018661207d565b828103602084015261271b818661207d565b915050826040830152949350505050565b60608152600061273f606083018661207d565b6020830194909452506040015291905056fea26469706673582212203d0bd19a9fed7adb3fa766ed90056bad46aa7ee48396626991b3e4fdbc2dda7264736f6c63430008130033",
  "linkReferences": {},
  "deployedLinkReferences": {}
}